{
  "contractName": "Store",
  "abi": [
    {
      "inputs": [],
      "stateMutability": "nonpayable",
      "type": "constructor"
    },
    {
      "anonymous": false,
      "inputs": [
        {
          "indexed": true,
          "internalType": "address",
          "name": "owner",
          "type": "address"
        },
        {
          "indexed": true,
          "internalType": "address",
          "name": "spender",
          "type": "address"
        },
        {
          "indexed": false,
          "internalType": "uint256",
          "name": "value",
          "type": "uint256"
        }
      ],
      "name": "Approval",
      "type": "event"
    },
    {
      "anonymous": false,
      "inputs": [
        {
          "indexed": true,
          "internalType": "address",
          "name": "from",
          "type": "address"
        },
        {
          "indexed": true,
          "internalType": "address",
          "name": "to",
          "type": "address"
        },
        {
          "indexed": false,
          "internalType": "uint256",
          "name": "value",
          "type": "uint256"
        }
      ],
      "name": "Transfer",
      "type": "event"
    },
    {
      "anonymous": false,
      "inputs": [
        {
          "indexed": false,
          "internalType": "address",
          "name": "sender",
          "type": "address"
        },
        {
          "indexed": true,
          "internalType": "address",
          "name": "receiver",
          "type": "address"
        },
        {
          "indexed": false,
          "internalType": "uint256",
          "name": "token_out",
          "type": "uint256"
        }
      ],
      "name": "claim",
      "type": "event"
    },
    {
      "anonymous": false,
      "inputs": [
        {
          "indexed": false,
          "internalType": "address",
          "name": "user",
          "type": "address"
        },
        {
          "indexed": false,
          "internalType": "uint256",
          "name": "amount_in",
          "type": "uint256"
        }
      ],
      "name": "deposit",
      "type": "event"
    },
    {
      "anonymous": false,
      "inputs": [
        {
          "indexed": false,
          "internalType": "address",
          "name": "sender",
          "type": "address"
        },
        {
          "indexed": true,
          "internalType": "address",
          "name": "receiver",
          "type": "address"
        },
        {
          "indexed": false,
          "internalType": "uint256",
          "name": "token_out",
          "type": "uint256"
        }
      ],
      "name": "refund",
      "type": "event"
    },
    {
      "inputs": [
        {
          "internalType": "address",
          "name": "owner",
          "type": "address"
        },
        {
          "internalType": "address",
          "name": "spender",
          "type": "address"
        }
      ],
      "name": "allowance",
      "outputs": [
        {
          "internalType": "uint256",
          "name": "",
          "type": "uint256"
        }
      ],
      "stateMutability": "view",
      "type": "function"
    },
    {
      "inputs": [
        {
          "internalType": "address",
          "name": "spender",
          "type": "address"
        },
        {
          "internalType": "uint256",
          "name": "amount",
          "type": "uint256"
        }
      ],
      "name": "approve",
      "outputs": [
        {
          "internalType": "bool",
          "name": "",
          "type": "bool"
        }
      ],
      "stateMutability": "nonpayable",
      "type": "function"
    },
    {
      "inputs": [
        {
          "internalType": "address",
          "name": "account",
          "type": "address"
        }
      ],
      "name": "balanceOf",
      "outputs": [
        {
          "internalType": "uint256",
          "name": "",
          "type": "uint256"
        }
      ],
      "stateMutability": "view",
      "type": "function"
    },
    {
      "inputs": [],
      "name": "decimals",
      "outputs": [
        {
          "internalType": "uint8",
          "name": "",
          "type": "uint8"
        }
      ],
      "stateMutability": "view",
      "type": "function"
    },
    {
      "inputs": [
        {
          "internalType": "address",
          "name": "spender",
          "type": "address"
        },
        {
          "internalType": "uint256",
          "name": "subtractedValue",
          "type": "uint256"
        }
      ],
      "name": "decreaseAllowance",
      "outputs": [
        {
          "internalType": "bool",
          "name": "",
          "type": "bool"
        }
      ],
      "stateMutability": "nonpayable",
      "type": "function"
    },
    {
      "inputs": [
        {
          "internalType": "address",
          "name": "spender",
          "type": "address"
        },
        {
          "internalType": "uint256",
          "name": "addedValue",
          "type": "uint256"
        }
      ],
      "name": "increaseAllowance",
      "outputs": [
        {
          "internalType": "bool",
          "name": "",
          "type": "bool"
        }
      ],
      "stateMutability": "nonpayable",
      "type": "function"
    },
    {
      "inputs": [
        {
          "internalType": "address",
          "name": "",
          "type": "address"
        }
      ],
      "name": "listBuyerInfor",
      "outputs": [
        {
          "internalType": "uint256",
          "name": "valueInput",
          "type": "uint256"
        },
        {
          "internalType": "uint256",
          "name": "valueOutput",
          "type": "uint256"
        },
        {
          "internalType": "uint256",
          "name": "countTime",
          "type": "uint256"
        },
        {
          "internalType": "uint256",
          "name": "currentTimeDeposit",
          "type": "uint256"
        },
        {
          "internalType": "uint256",
          "name": "currnetTimeClaim",
          "type": "uint256"
        },
        {
          "internalType": "uint256",
          "name": "currentTimeRefund",
          "type": "uint256"
        }
      ],
      "stateMutability": "view",
      "type": "function"
    },
    {
      "inputs": [],
      "name": "name",
      "outputs": [
        {
          "internalType": "string",
          "name": "",
          "type": "string"
        }
      ],
      "stateMutability": "view",
      "type": "function"
    },
    {
      "inputs": [],
      "name": "symbol",
      "outputs": [
        {
          "internalType": "string",
          "name": "",
          "type": "string"
        }
      ],
      "stateMutability": "view",
      "type": "function"
    },
    {
      "inputs": [],
      "name": "totalSupply",
      "outputs": [
        {
          "internalType": "uint256",
          "name": "",
          "type": "uint256"
        }
      ],
      "stateMutability": "view",
      "type": "function"
    },
    {
      "inputs": [
        {
          "internalType": "address",
          "name": "to",
          "type": "address"
        },
        {
          "internalType": "uint256",
          "name": "amount",
          "type": "uint256"
        }
      ],
      "name": "transfer",
      "outputs": [
        {
          "internalType": "bool",
          "name": "",
          "type": "bool"
        }
      ],
      "stateMutability": "nonpayable",
      "type": "function"
    },
    {
      "inputs": [
        {
          "internalType": "address",
          "name": "from",
          "type": "address"
        },
        {
          "internalType": "address",
          "name": "to",
          "type": "address"
        },
        {
          "internalType": "uint256",
          "name": "amount",
          "type": "uint256"
        }
      ],
      "name": "transferFrom",
      "outputs": [
        {
          "internalType": "bool",
          "name": "",
          "type": "bool"
        }
      ],
      "stateMutability": "nonpayable",
      "type": "function"
    },
    {
      "inputs": [
        {
          "internalType": "uint256",
          "name": "amount_in",
          "type": "uint256"
        }
      ],
      "name": "depositETH",
      "outputs": [],
      "stateMutability": "payable",
      "type": "function"
    },
    {
      "inputs": [],
      "name": "claimToken",
      "outputs": [],
      "stateMutability": "nonpayable",
      "type": "function"
    },
    {
      "inputs": [],
      "name": "refundEth",
      "outputs": [],
      "stateMutability": "nonpayable",
      "type": "function"
    },
    {
      "inputs": [
        {
          "internalType": "address",
          "name": "_address",
          "type": "address"
        }
      ],
      "name": "getBalance",
      "outputs": [
        {
          "internalType": "uint256",
          "name": "",
          "type": "uint256"
        }
      ],
      "stateMutability": "view",
      "type": "function"
    },
    {
      "inputs": [],
      "name": "getBuyerInformation",
      "outputs": [
        {
          "components": [
            {
              "internalType": "uint256",
              "name": "valueInput",
              "type": "uint256"
            },
            {
              "internalType": "uint256",
              "name": "valueOutput",
              "type": "uint256"
            },
            {
              "internalType": "uint256",
              "name": "countTime",
              "type": "uint256"
            },
            {
              "internalType": "uint256",
              "name": "currentTimeDeposit",
              "type": "uint256"
            },
            {
              "internalType": "uint256",
              "name": "currnetTimeClaim",
              "type": "uint256"
            },
            {
              "internalType": "uint256",
              "name": "currentTimeRefund",
              "type": "uint256"
            }
          ],
          "internalType": "struct Store.BuyerInfo",
          "name": "",
          "type": "tuple"
        }
      ],
      "stateMutability": "view",
      "type": "function"
    }
  ],
  "bytecode": "0x6080604052662386f26fc100006005556103e8600655600a6007556014600855733cb06a7709a2511e48a091979b9b68b27999afab600960006101000a81548173ffffffffffffffffffffffffffffffffffffffff021916908373ffffffffffffffffffffffffffffffffffffffff1602179055503480156200008157600080fd5b506040518060400160405280600b81526020017f546f6b656e4552433230200000000000000000000000000000000000000000008152506040518060400160405280600381526020017f544b4500000000000000000000000000000000000000000000000000000000008152508160039080519060200190620001069291906200037c565b5080600490805190602001906200011f9291906200037c565b505050600960009054906101000a900473ffffffffffffffffffffffffffffffffffffffff1673ffffffffffffffffffffffffffffffffffffffff163373ffffffffffffffffffffffffffffffffffffffff1614620001b5576040517f08c379a0000000000000000000000000000000000000000000000000000000008152600401620001ac90620004c1565b60405180910390fd5b620001f3600960009054906101000a900473ffffffffffffffffffffffffffffffffffffffff1669021e19e0c9bab2400000620001f960201b60201c565b6200062e565b600073ffffffffffffffffffffffffffffffffffffffff168273ffffffffffffffffffffffffffffffffffffffff1614156200026c576040517f08c379a00000000000000000000000000000000000000000000000000000000081526004016200026390620004e3565b60405180910390fd5b62000280600083836200037260201b60201c565b806002600082825462000294919062000533565b92505081905550806000808473ffffffffffffffffffffffffffffffffffffffff1673ffffffffffffffffffffffffffffffffffffffff1681526020019081526020016000206000828254620002eb919062000533565b925050819055508173ffffffffffffffffffffffffffffffffffffffff16600073ffffffffffffffffffffffffffffffffffffffff167fddf252ad1be2c89b69c2b068fc378daa952ba7f163c4a11628f55a4df523b3ef8360405162000352919062000505565b60405180910390a36200036e600083836200037760201b60201c565b5050565b505050565b505050565b8280546200038a906200059a565b90600052602060002090601f016020900481019282620003ae5760008555620003fa565b82601f10620003c957805160ff1916838001178555620003fa565b82800160010185558215620003fa579182015b82811115620003f9578251825591602001919060010190620003dc565b5b5090506200040991906200040d565b5090565b5b80821115620004285760008160009055506001016200040e565b5090565b60006200043b60158362000522565b91507f4f4e4c592041444d494e2043414e20414354494f4e00000000000000000000006000830152602082019050919050565b60006200047d601f8362000522565b91507f45524332303a206d696e7420746f20746865207a65726f2061646472657373006000830152602082019050919050565b620004bb8162000590565b82525050565b60006020820190508181036000830152620004dc816200042c565b9050919050565b60006020820190508181036000830152620004fe816200046e565b9050919050565b60006020820190506200051c6000830184620004b0565b92915050565b600082825260208201905092915050565b6000620005408262000590565b91506200054d8362000590565b9250827fffffffffffffffffffffffffffffffffffffffffffffffffffffffffffffffff03821115620005855762000584620005d0565b5b828201905092915050565b6000819050919050565b60006002820490506001821680620005b357607f821691505b60208210811415620005ca57620005c9620005ff565b5b50919050565b7f4e487b7100000000000000000000000000000000000000000000000000000000600052601160045260246000fd5b7f4e487b7100000000000000000000000000000000000000000000000000000000600052602260045260246000fd5b611f06806200063e6000396000f3fe6080604052600436106100fe5760003560e01c80634451d89f1161009557806395d89b411161006457806395d89b411461032f578063a457c2d71461035a578063a9059cbb14610397578063dd62ed3e146103d4578063f8b2cb4f14610411576100fe565b80634451d89f146102945780635358fbda146102ab578063581e5ed4146102c757806370a08231146102f2576100fe565b80631faa4133116100d15780631faa4133146101d857806323b872dd146101ef578063313ce5671461022c5780633950935114610257576100fe565b806305f286621461010357806306fdde0314610145578063095ea7b31461017057806318160ddd146101ad575b600080fd5b34801561010f57600080fd5b5061012a600480360381019061012591906114bc565b61044e565b60405161013c96959493929190611b54565b60405180910390f35b34801561015157600080fd5b5061015a61048a565b60405161016791906119fc565b60405180910390f35b34801561017c57600080fd5b5061019760048036038101906101929190611570565b61051c565b6040516101a491906119e1565b60405180910390f35b3480156101b957600080fd5b506101c261053f565b6040516101cf9190611b39565b60405180910390f35b3480156101e457600080fd5b506101ed610549565b005b3480156101fb57600080fd5b5061021660048036038101906102119190611521565b610792565b60405161022391906119e1565b60405180910390f35b34801561023857600080fd5b506102416107c1565b60405161024e9190611bb5565b60405180910390f35b34801561026357600080fd5b5061027e60048036038101906102799190611570565b6107ca565b60405161028b91906119e1565b60405180910390f35b3480156102a057600080fd5b506102a9610801565b005b6102c560048036038101906102c091906115ac565b610a33565b005b3480156102d357600080fd5b506102dc610cc3565b6040516102e99190611b1e565b60405180910390f35b3480156102fe57600080fd5b50610319600480360381019061031491906114bc565b610d56565b6040516103269190611b39565b60405180910390f35b34801561033b57600080fd5b50610344610d9e565b60405161035191906119fc565b60405180910390f35b34801561036657600080fd5b50610381600480360381019061037c9190611570565b610e30565b60405161038e91906119e1565b60405180910390f35b3480156103a357600080fd5b506103be60048036038101906103b99190611570565b610ea7565b6040516103cb91906119e1565b60405180910390f35b3480156103e057600080fd5b506103fb60048036038101906103f691906114e5565b610eca565b6040516104089190611b39565b60405180910390f35b34801561041d57600080fd5b50610438600480360381019061043391906114bc565b610f51565b6040516104459190611b39565b60405180910390f35b600a6020528060005260406000206000915090508060000154908060010154908060020154908060030154908060040154908060050154905086565b60606003805461049990611d89565b80601f01602080910402602001604051908101604052809291908181526020018280546104c590611d89565b80156105125780601f106104e757610100808354040283529160200191610512565b820191906000526020600020905b8154815290600101906020018083116104f557829003601f168201915b5050505050905090565b600080610527610f72565b9050610534818585610f7a565b600191505092915050565b6000600254905090565b42600a60003373ffffffffffffffffffffffffffffffffffffffff1673ffffffffffffffffffffffffffffffffffffffff16815260200190815260200160002060050154106105cd576040517f08c379a00000000000000000000000000000000000000000000000000000000081526004016105c490611afe565b60405180910390fd5b3373ffffffffffffffffffffffffffffffffffffffff166108fc600554600a60003373ffffffffffffffffffffffffffffffffffffffff1673ffffffffffffffffffffffffffffffffffffffff168152602001908152602001600020600001546106379190611ccd565b9081150290604051600060405180830381858888f19350505050158015610662573d6000803e3d6000fd5b5061066b61145c565b80600a60003373ffffffffffffffffffffffffffffffffffffffff1673ffffffffffffffffffffffffffffffffffffffff168152602001908152602001600020600082015181600001556020820151816001015560408201518160020155606082015181600301556080820151816004015560a082015181600501559050503373ffffffffffffffffffffffffffffffffffffffff167f82ad6f359c9a7894d5d21de514e3452daca85a950ac56e85a326a09e16a2136830670de0b6b3a7640000600a60003373ffffffffffffffffffffffffffffffffffffffff1673ffffffffffffffffffffffffffffffffffffffff168152602001908152602001600020600101546107799190611c73565b6040516107879291906119b8565b60405180910390a250565b60008061079d610f72565b90506107aa858285611145565b6107b58585856111d1565b60019150509392505050565b60006012905090565b6000806107d5610f72565b90506107f68185856107e78589610eca565b6107f19190611bec565b610f7a565b600191505092915050565b42600a60003373ffffffffffffffffffffffffffffffffffffffff1673ffffffffffffffffffffffffffffffffffffffff1681526020019081526020016000206004015410610885576040517f08c379a000000000000000000000000000000000000000000000000000000000815260040161087c90611afe565b60405180910390fd5b6108f4600960009054906101000a900473ffffffffffffffffffffffffffffffffffffffff1633600a60003373ffffffffffffffffffffffffffffffffffffffff1673ffffffffffffffffffffffffffffffffffffffff16815260200190815260200160002060010154610792565b506108fd61145c565b80600a60003373ffffffffffffffffffffffffffffffffffffffff1673ffffffffffffffffffffffffffffffffffffffff168152602001908152602001600020600082015181600001556020820151816001015560408201518160020155606082015181600301556080820151816004015560a082015181600501559050503373ffffffffffffffffffffffffffffffffffffffff167f996cba682088db5542850938e9bc4c0628f01143c672740ba4df894eb73ad3ce600960009054906101000a900473ffffffffffffffffffffffffffffffffffffffff16600a60003373ffffffffffffffffffffffffffffffffffffffff1673ffffffffffffffffffffffffffffffffffffffff16815260200190815260200160002060010154604051610a289291906119b8565b60405180910390a250565b3373ffffffffffffffffffffffffffffffffffffffff166108fc6005548334610a5c9190611ccd565b610a669190611ccd565b9081150290604051600060405180830381858888f19350505050158015610a91573d6000803e3d6000fd5b5080600a60003373ffffffffffffffffffffffffffffffffffffffff1673ffffffffffffffffffffffffffffffffffffffff16815260200190815260200160002060000181905550670de0b6b3a764000060065482610af09190611c73565b610afa9190611c42565b600a60003373ffffffffffffffffffffffffffffffffffffffff1673ffffffffffffffffffffffffffffffffffffffff16815260200190815260200160002060010181905550600a60003373ffffffffffffffffffffffffffffffffffffffff1673ffffffffffffffffffffffffffffffffffffffff1681526020019081526020016000206002016000815480929190610b9390611dbb565b919050555042600a60003373ffffffffffffffffffffffffffffffffffffffff1673ffffffffffffffffffffffffffffffffffffffff1681526020019081526020016000206003018190555060075442610bed9190611bec565b600a60003373ffffffffffffffffffffffffffffffffffffffff1673ffffffffffffffffffffffffffffffffffffffff1681526020019081526020016000206004018190555060085442610c419190611bec565b600a60003373ffffffffffffffffffffffffffffffffffffffff1673ffffffffffffffffffffffffffffffffffffffff168152602001908152602001600020600501819055507f47e7ef24b3022e382e65b1298581281f0ae273ac4f76464efcf5b06769264f2f3382604051610cb89291906119b8565b60405180910390a150565b610ccb61145c565b600a60003373ffffffffffffffffffffffffffffffffffffffff1673ffffffffffffffffffffffffffffffffffffffff1681526020019081526020016000206040518060c00160405290816000820154815260200160018201548152602001600282015481526020016003820154815260200160048201548152602001600582015481525050905090565b60008060008373ffffffffffffffffffffffffffffffffffffffff1673ffffffffffffffffffffffffffffffffffffffff168152602001908152602001600020549050919050565b606060048054610dad90611d89565b80601f0160208091040260200160405190810160405280929190818152602001828054610dd990611d89565b8015610e265780601f10610dfb57610100808354040283529160200191610e26565b820191906000526020600020905b815481529060010190602001808311610e0957829003601f168201915b5050505050905090565b600080610e3b610f72565b90506000610e498286610eca565b905083811015610e8e576040517f08c379a0000000000000000000000000000000000000000000000000000000008152600401610e8590611ade565b60405180910390fd5b610e9b8286868403610f7a565b60019250505092915050565b600080610eb2610f72565b9050610ebf8185856111d1565b600191505092915050565b6000600160008473ffffffffffffffffffffffffffffffffffffffff1673ffffffffffffffffffffffffffffffffffffffff16815260200190815260200160002060008373ffffffffffffffffffffffffffffffffffffffff1673ffffffffffffffffffffffffffffffffffffffff16815260200190815260200160002054905092915050565b60008173ffffffffffffffffffffffffffffffffffffffff16319050919050565b600033905090565b600073ffffffffffffffffffffffffffffffffffffffff168373ffffffffffffffffffffffffffffffffffffffff161415610fea576040517f08c379a0000000000000000000000000000000000000000000000000000000008152600401610fe190611abe565b60405180910390fd5b600073ffffffffffffffffffffffffffffffffffffffff168273ffffffffffffffffffffffffffffffffffffffff16141561105a576040517f08c379a000000000000000000000000000000000000000000000000000000000815260040161105190611a3e565b60405180910390fd5b80600160008573ffffffffffffffffffffffffffffffffffffffff1673ffffffffffffffffffffffffffffffffffffffff16815260200190815260200160002060008473ffffffffffffffffffffffffffffffffffffffff1673ffffffffffffffffffffffffffffffffffffffff168152602001908152602001600020819055508173ffffffffffffffffffffffffffffffffffffffff168373ffffffffffffffffffffffffffffffffffffffff167f8c5be1e5ebec7d5bd14f71427d1e84f3dd0314c0f7b2291e5b200ac8c7c3b925836040516111389190611b39565b60405180910390a3505050565b60006111518484610eca565b90507fffffffffffffffffffffffffffffffffffffffffffffffffffffffffffffffff81146111cb57818110156111bd576040517f08c379a00000000000000000000000000000000000000000000000000000000081526004016111b490611a5e565b60405180910390fd5b6111ca8484848403610f7a565b5b50505050565b600073ffffffffffffffffffffffffffffffffffffffff168373ffffffffffffffffffffffffffffffffffffffff161415611241576040517f08c379a000000000000000000000000000000000000000000000000000000000815260040161123890611a9e565b60405180910390fd5b600073ffffffffffffffffffffffffffffffffffffffff168273ffffffffffffffffffffffffffffffffffffffff1614156112b1576040517f08c379a00000000000000000000000000000000000000000000000000000000081526004016112a890611a1e565b60405180910390fd5b6112bc838383611452565b60008060008573ffffffffffffffffffffffffffffffffffffffff1673ffffffffffffffffffffffffffffffffffffffff16815260200190815260200160002054905081811015611342576040517f08c379a000000000000000000000000000000000000000000000000000000000815260040161133990611a7e565b60405180910390fd5b8181036000808673ffffffffffffffffffffffffffffffffffffffff1673ffffffffffffffffffffffffffffffffffffffff16815260200190815260200160002081905550816000808573ffffffffffffffffffffffffffffffffffffffff1673ffffffffffffffffffffffffffffffffffffffff16815260200190815260200160002060008282546113d59190611bec565b925050819055508273ffffffffffffffffffffffffffffffffffffffff168473ffffffffffffffffffffffffffffffffffffffff167fddf252ad1be2c89b69c2b068fc378daa952ba7f163c4a11628f55a4df523b3ef846040516114399190611b39565b60405180910390a361144c848484611457565b50505050565b505050565b505050565b6040518060c001604052806000815260200160008152602001600081526020016000815260200160008152602001600081525090565b6000813590506114a181611ea2565b92915050565b6000813590506114b681611eb9565b92915050565b6000602082840312156114ce57600080fd5b60006114dc84828501611492565b91505092915050565b600080604083850312156114f857600080fd5b600061150685828601611492565b925050602061151785828601611492565b9150509250929050565b60008060006060848603121561153657600080fd5b600061154486828701611492565b935050602061155586828701611492565b9250506040611566868287016114a7565b9150509250925092565b6000806040838503121561158357600080fd5b600061159185828601611492565b92505060206115a2858286016114a7565b9150509250929050565b6000602082840312156115be57600080fd5b60006115cc848285016114a7565b91505092915050565b6115de81611d01565b82525050565b6115ed81611d13565b82525050565b60006115fe82611bd0565b6116088185611bdb565b9350611618818560208601611d56565b61162181611e91565b840191505092915050565b6000611639602383611bdb565b91507f45524332303a207472616e7366657220746f20746865207a65726f206164647260008301527f65737300000000000000000000000000000000000000000000000000000000006020830152604082019050919050565b600061169f602283611bdb565b91507f45524332303a20617070726f766520746f20746865207a65726f20616464726560008301527f73730000000000000000000000000000000000000000000000000000000000006020830152604082019050919050565b6000611705601d83611bdb565b91507f45524332303a20696e73756666696369656e7420616c6c6f77616e63650000006000830152602082019050919050565b6000611745602683611bdb565b91507f45524332303a207472616e7366657220616d6f756e742065786365656473206260008301527f616c616e636500000000000000000000000000000000000000000000000000006020830152604082019050919050565b60006117ab602583611bdb565b91507f45524332303a207472616e736665722066726f6d20746865207a65726f20616460008301527f64726573730000000000000000000000000000000000000000000000000000006020830152604082019050919050565b6000611811602483611bdb565b91507f45524332303a20617070726f76652066726f6d20746865207a65726f2061646460008301527f72657373000000000000000000000000000000000000000000000000000000006020830152604082019050919050565b6000611877602583611bdb565b91507f45524332303a2064656372656173656420616c6c6f77616e63652062656c6f7760008301527f207a65726f0000000000000000000000000000000000000000000000000000006020830152604082019050919050565b60006118dd601783611bdb565b91507f4e4f542054494d4520544f20434c49414d20544f4b454e0000000000000000006000830152602082019050919050565b60c082016000820151611926600085018261198b565b506020820151611939602085018261198b565b50604082015161194c604085018261198b565b50606082015161195f606085018261198b565b506080820151611972608085018261198b565b5060a082015161198560a085018261198b565b50505050565b61199481611d3f565b82525050565b6119a381611d3f565b82525050565b6119b281611d49565b82525050565b60006040820190506119cd60008301856115d5565b6119da602083018461199a565b9392505050565b60006020820190506119f660008301846115e4565b92915050565b60006020820190508181036000830152611a1681846115f3565b905092915050565b60006020820190508181036000830152611a378161162c565b9050919050565b60006020820190508181036000830152611a5781611692565b9050919050565b60006020820190508181036000830152611a77816116f8565b9050919050565b60006020820190508181036000830152611a9781611738565b9050919050565b60006020820190508181036000830152611ab78161179e565b9050919050565b60006020820190508181036000830152611ad781611804565b9050919050565b60006020820190508181036000830152611af78161186a565b9050919050565b60006020820190508181036000830152611b17816118d0565b9050919050565b600060c082019050611b336000830184611910565b92915050565b6000602082019050611b4e600083018461199a565b92915050565b600060c082019050611b69600083018961199a565b611b76602083018861199a565b611b83604083018761199a565b611b90606083018661199a565b611b9d608083018561199a565b611baa60a083018461199a565b979650505050505050565b6000602082019050611bca60008301846119a9565b92915050565b600081519050919050565b600082825260208201905092915050565b6000611bf782611d3f565b9150611c0283611d3f565b9250827fffffffffffffffffffffffffffffffffffffffffffffffffffffffffffffffff03821115611c3757611c36611e04565b5b828201905092915050565b6000611c4d82611d3f565b9150611c5883611d3f565b925082611c6857611c67611e33565b5b828204905092915050565b6000611c7e82611d3f565b9150611c8983611d3f565b9250817fffffffffffffffffffffffffffffffffffffffffffffffffffffffffffffffff0483118215151615611cc257611cc1611e04565b5b828202905092915050565b6000611cd882611d3f565b9150611ce383611d3f565b925082821015611cf657611cf5611e04565b5b828203905092915050565b6000611d0c82611d1f565b9050919050565b60008115159050919050565b600073ffffffffffffffffffffffffffffffffffffffff82169050919050565b6000819050919050565b600060ff82169050919050565b60005b83811015611d74578082015181840152602081019050611d59565b83811115611d83576000848401525b50505050565b60006002820490506001821680611da157607f821691505b60208210811415611db557611db4611e62565b5b50919050565b6000611dc682611d3f565b91507fffffffffffffffffffffffffffffffffffffffffffffffffffffffffffffffff821415611df957611df8611e04565b5b600182019050919050565b7f4e487b7100000000000000000000000000000000000000000000000000000000600052601160045260246000fd5b7f4e487b7100000000000000000000000000000000000000000000000000000000600052601260045260246000fd5b7f4e487b7100000000000000000000000000000000000000000000000000000000600052602260045260246000fd5b6000601f19601f8301169050919050565b611eab81611d01565b8114611eb657600080fd5b50565b611ec281611d3f565b8114611ecd57600080fd5b5056fea26469706673582212205e702679e0959fd20686d1a88834ec576ba3161bb08705cd4011e0e494263c6a64736f6c63430008000033",
  "immutableReferences": {},
  "source": "pragma solidity ^0.8.0;\r\n\r\nimport \"./ERC20.sol\";\r\ncontract Store is ERC20{\r\n\r\n    uint256 private FEE_USE_APP = 10000000000000000; // 0.01 ETH\r\n    uint256 private VALUE_SWAP_TOKEN = 1000; // 1ETH = 1000 token\r\n    uint256 private SPACE_TIME_CLAIM = 10; // after 100 seconds ==> can claim token\r\n    uint256 private SPACE_TIME_REFUND = 20; // after 200 seconds ==> can refund token\r\n    address private ADMIN = 0x3Cb06A7709a2511e48a091979b9b68B27999AfaB;\r\n\r\n    event deposit(address user, uint256 amount_in);\r\n    event claim(address sender, address indexed receiver, uint256 token_out);\r\n    event refund(address sender, address indexed receiver, uint256 token_out);\r\n\r\n    struct BuyerInfo{\r\n        uint256 valueInput;\r\n        uint256 valueOutput;\r\n        uint256 countTime;\r\n        uint256 currentTimeDeposit;\r\n        uint256 currnetTimeClaim;\r\n        uint256 currentTimeRefund;\r\n    }\r\n\r\n    modifier onlyAdmin(){\r\n        require(msg.sender == ADMIN, \"ONLY ADMIN CAN ACTION\");\r\n        _;\r\n    }\r\n\r\n    mapping(address => BuyerInfo) public listBuyerInfor;\r\n\r\n    constructor() ERC20(\"TokenERC20 \", \"TKE\")  onlyAdmin{\r\n         _mint(ADMIN, 10000000000000000000000);\r\n    }\r\n\r\n    function depositETH(uint256 amount_in) external payable {\r\n        payable(msg.sender).transfer(msg.value - amount_in - FEE_USE_APP);\r\n        listBuyerInfor[msg.sender].valueInput = amount_in;\r\n        listBuyerInfor[msg.sender].valueOutput = amount_in * VALUE_SWAP_TOKEN / (10 ** 18);\r\n        listBuyerInfor[msg.sender].countTime++;\r\n        listBuyerInfor[msg.sender].currentTimeDeposit = block.timestamp;\r\n        listBuyerInfor[msg.sender].currnetTimeClaim = block.timestamp + SPACE_TIME_CLAIM;\r\n        listBuyerInfor[msg.sender].currentTimeRefund = block.timestamp + SPACE_TIME_REFUND;\r\n        emit deposit(msg.sender, amount_in);\r\n    }\r\n\r\n    function claimToken() external {\r\n        require(listBuyerInfor[msg.sender].currnetTimeClaim < block.timestamp, \"NOT TIME TO CLIAM TOKEN\");\r\n        transferFrom(ADMIN, msg.sender, listBuyerInfor[msg.sender].valueOutput);\r\n        BuyerInfo memory buyerInfo;\r\n        listBuyerInfor[msg.sender] = buyerInfo;\r\n        emit claim(ADMIN, msg.sender, listBuyerInfor[msg.sender].valueOutput);\r\n    }\r\n\r\n    function refundEth() external{\r\n        require(listBuyerInfor[msg.sender].currentTimeRefund < block.timestamp, \"NOT TIME TO CLIAM TOKEN\");\r\n        payable(msg.sender).transfer(listBuyerInfor[msg.sender].valueInput - FEE_USE_APP);\r\n        BuyerInfo memory buyerInfo;\r\n        listBuyerInfor[msg.sender] = buyerInfo;\r\n        emit refund(address(this), msg.sender, listBuyerInfor[msg.sender].valueOutput * (10 ** 18));\r\n    }\r\n    //1000000000000000000000\r\n    //100000000000000000\r\n    function getBalance(address _address) public view returns(uint256){\r\n        return _address.balance;\r\n    }\r\n\r\n    function getBuyerInformation() public view returns(BuyerInfo memory){\r\n        return listBuyerInfor[msg.sender];\r\n    }\r\n}",
  "sourcePath": "C:\\Users\\Admin\\Desktop\\FE_Demo1\\contracts\\ERC20\\Store.sol",
  "compiler": {
    "name": "solc",
    "version": "0.8.0+commit.c7dfd78e.Emscripten.clang"
  },
  "schemaVersion": "3.4.4",
  "updatedAt": "2022-05-16T14:21:06.246Z",
  "devdoc": {
    "kind": "dev",
    "methods": {
      "allowance(address,address)": {
        "details": "See {IERC20-allowance}."
      },
      "approve(address,uint256)": {
        "details": "See {IERC20-approve}. NOTE: If `amount` is the maximum `uint256`, the allowance is not updated on `transferFrom`. This is semantically equivalent to an infinite approval. Requirements: - `spender` cannot be the zero address."
      },
      "balanceOf(address)": {
        "details": "See {IERC20-balanceOf}."
      },
      "decimals()": {
        "details": "Returns the number of decimals used to get its user representation. For example, if `decimals` equals `2`, a balance of `505` tokens should be displayed to a user as `5.05` (`505 / 10 ** 2`). Tokens usually opt for a value of 18, imitating the relationship between Ether and Wei. This is the value {ERC20} uses, unless this function is overridden; NOTE: This information is only used for _display_ purposes: it in no way affects any of the arithmetic of the contract, including {IERC20-balanceOf} and {IERC20-transfer}."
      },
      "decreaseAllowance(address,uint256)": {
        "details": "Atomically decreases the allowance granted to `spender` by the caller. This is an alternative to {approve} that can be used as a mitigation for problems described in {IERC20-approve}. Emits an {Approval} event indicating the updated allowance. Requirements: - `spender` cannot be the zero address. - `spender` must have allowance for the caller of at least `subtractedValue`."
      },
      "increaseAllowance(address,uint256)": {
        "details": "Atomically increases the allowance granted to `spender` by the caller. This is an alternative to {approve} that can be used as a mitigation for problems described in {IERC20-approve}. Emits an {Approval} event indicating the updated allowance. Requirements: - `spender` cannot be the zero address."
      },
      "name()": {
        "details": "Returns the name of the token."
      },
      "symbol()": {
        "details": "Returns the symbol of the token, usually a shorter version of the name."
      },
      "totalSupply()": {
        "details": "See {IERC20-totalSupply}."
      },
      "transfer(address,uint256)": {
        "details": "See {IERC20-transfer}. Requirements: - `to` cannot be the zero address. - the caller must have a balance of at least `amount`."
      },
      "transferFrom(address,address,uint256)": {
        "details": "See {IERC20-transferFrom}. Emits an {Approval} event indicating the updated allowance. This is not required by the EIP. See the note at the beginning of {ERC20}. NOTE: Does not update the allowance if the current allowance is the maximum `uint256`. Requirements: - `from` and `to` cannot be the zero address. - `from` must have a balance of at least `amount`. - the caller must have allowance for ``from``'s tokens of at least `amount`."
      }
    },
    "version": 1
  },
  "userdoc": {
    "kind": "user",
    "methods": {},
    "version": 1
  }
}